:1000000001308A00AF290000831A0A28A400030ED9
:10001000A5000F288312A400030EA500A5140A084A
:10002000AB008A018313A40E0408A6002008A700D1
:100030002108A8002208A9002308AA0083128B1E09
:1000400023280B193628260884002708A000280832
:10005000A1002908A2002A08A3002B088A00250E67
:1000600083008312240EA51883160900AC030B111C
:100070000B118A112328713083168F000F08851207
:100080008312851601308316850083121F13831691
:100090001F149F101F119F111F169F121F178312ED
:1000A0009F131F140730990083160508850006303A
:1000B0008312A000A00B5A28000019088C11D42923
:1000C0000030A1001F08F33921049F009F18662803
:1000D0009F149F1869281E08B5003508133C0318A3
:1000E00079283508313C031C79280230A100AA2860
:1000F000A8283508313C031885283508593C031CCD
:1001000085280130A100AA28A8283508593C0318E1
:1001100091283508813C031C91280330A100AA28AE
:10012000A8283508813C03189D283508A93C031CE4
:100130009D280430A100AA28A8283508A93C031846
:10014000A8283508DB3C031CA8280530A100AA28F4
:10015000FF30A10008003930840000080319BD28D1
:100160000230A100A001A00BB328A10BB228973048
:10017000A000A00BB928800BB02808006430B9009B
:10018000AB20602036082102031DCA280130A100DF
:10019000CD28CD280030A100CD2808000830BA02B3
:1001A000031CDD283A3084000310800C000803197A
:1001B000DD28DB280000800BDA2808008316851272
:1001C000831285120330B900C630BA00CE20B90BB5
:1001D000E42883168512831285160130B900AB20FE
:1001E0000530B9006C30BA00CE20B90BF2280800F7
:1001F00083168512831285120330B900C630BA0007
:10020000CE20B90BFE288316851283128516053081
:10021000B9006C30BA00CE20B90B0929080083164A
:100220008512831285120830B900AB200230B90064
:10023000F830BA00CE20B90B182983168512831224
:1002400085160430B900AB20B7013708023C031C07
:10025000AE2983160108C0390738810001308312A6
:10026000AC00810183168512831285120330B90018
:10027000C630BA00CE20B90B3829831685128312F6
:1002800085160130B900AB200530B9006C30BA00DA
:10029000CE20B90B4629B8013808063C031C612959
:1002A0002D08A0003808A10003195A290310A00C3A
:1002B000A10B5629201C5E29DE205F29F820B80AF0
:1002C0004C29B8013808063C031C77293608A000E1
:1002D0003808A100031970290310A00CA10B6C2988
:1002E000201C7429DE207529F820B80A622983169B
:1002F0008512831285120330B900C630BA00CE20B1
:10030000B90B7D2983168512831285160130B90039
:10031000AB200530B9006C30BA00CE20B90B8B2968
:1003200083168512831285120330B900C630BA00D5
:10033000CE20B90B96298316851283128516AC0838
:10034000031D9F290D30B900AB200230B900E43005
:10035000BA00CE20B90BA729B70A252908008401C5
:100360001F308305713083168F000F080130831210
:10037000AC004730AD000430AE000530AF001230A5
:10038000B0001330B1001430B2001530B3000830A3
:10039000B400B5011F1383161F109F101F119F116A
:1003A0000730831299003B28C0308B048B166020E5
:1003B0002108013A0319E929033A0319F329013AFB
:1003C0000319FD29073A0319132A013A0319292AA7
:1003D000332A0130B600BE20A1080319F2292E08E5
:1003E000B6000F21352A0230B600BE20A10803193D
:1003F000FC292F08B6000F21352A0330B600BE2095
:10040000A1080319122AC830B900AB2060202108C6
:10041000033C031D0F2A3208B6000F21122A3008B0
:10042000B6000F21352A0430B600BE20A1080319FA
:10043000282AC830B900AB2060202108043C031DE5
:10044000252A3308B6000F21282A3108B6000F21CB
:10045000352A0530B600BE20A1080319322A340817
:0E046000B6000F21352AB501352AD7296300D1
:02400E00C43FAD
:00000001FF
;PIC12F683
;CRC=B362  CREATED="21-sep-10 23:36"
